:020000040800F2
:1000000000400020550300089D0300089D030008E0
:100010009D0300089D0300089D03000800000000E8
:100020000000000000000000000000009D03000828
:100030009D030008000000009D0300089D030008C8
:100040009D0300089D0300089D0300089D03000810
:100050009D0300089D0300089D0300089D03000800
:100060009D0300089D0300089D0300089D030008F0
:100070009D0300089D0300089D0300089D030008E0
:100080009D0300089D0300089D0300089D030008D0
:100090009D0300089D0300089D0300089D030008C0
:1000A0009D0300089D0300089D0300089D030008B0
:1000B0009D0300089D0300089D0300089D030008A0
:1000C0009D0300089D0300089D0300089D03000890
:1000D0009D0300089D0300089D0300089D03000880
:1000E0009D0300089D0300089D0300089D03000870
:1000F0009D03000800000000000000000000000058
:0C01000000000000000000005FF808F1A3
:10010C0010B5054C237833B9044B13B10448AFF345
:10011C0000800123237010BD540400200000000057
:10012C005C06000808B5034B1BB103490348AFF349
:10013C00008008BD00000000580400205C06000888
:10014C00154B002B08BF134B9D46A3F5803A00219D
:10015C008B460F461348144A121A00F04FF90F4BF6
:10016C00002B00D098470E4B002B00D09847002056
:10017C00002104000D000D48002802D00C4800F0AE
:10018C00EFF900F017F92000290000F0DBF800F07F
:10019C0001F900BF00000800000000000000000092
:1001AC000000000054040020940400206D05000899
:1001BC00790500080021374B30B41868364A40F4F2
:1001CC0080701860986882B002409A601A681C4669
:1001DC0022F0885222F001121A601A6822F480224E
:1001EC001A609A6822F47D029A60D960009101919C
:1001FC001A6842F001021A6003E0009BB3F5A04FAD
:10020C0006D0236803F002030193019B002BF4D06A
:10021C00204B1B6813F0020318BF01230193019BB1
:10022C00012B06D04FF000621C4B9A6002B030BC20
:10023C0070471B484FF4006501461A4B154C1A6861
:10024C0022F001021A601A6822F002021A601A687F
:10025C0022F004021A60636A43F080536362056003
:10026C004B68DB06FCD40B4B19469A689A609A686B
:10027C009A609A689A609A6822F003029A609A6867
:10028C0042F001029A608B6803F00C03042BFAD144
:10029C00C8E700BF003802400CC0FF8800ED00E04A
:1002AC0000700040003C02401D4B9B6803F00C03A7
:1002BC000C2B08D8DFE803F0070707071C07070714
:1002CC00190707071F004FF40043154A15495268D8
:1002DC00C2F3423201329340114A9268C2F30312C4
:1002EC000A44127BD340CB6170470F4B0D49F3E7A7
:1002FC000E4B0C49F0E70A480A4982688368C2F33E
:10030C0083428A5C8068D2B2C00354BF0748064857
:10031C00C3F3815300FB02F20133B2FBF3F3DBE7CF
:10032C00003802400400002000127A000024F4007F
:10033C009006000800000020540400205404002003
:10034C0094040020FEE700BF002103E00B4B5B5838
:10035C00435004310A480B4B42189A42F6D30A4ACE
:10036C0002E0002342F8043B084B9A42F9D3FFF712
:10037C0021FF00F01FF8FFF7E5FF7047900600081B
:10038C000000002054040020540400209404002099
:10039C00FEE7000008B50021044600F089F8044B84
:1003AC001868C36B03B19847204600F04FF900BFA3
:1003BC007806000870B50D4E0D4D761BB61006D0A4
:1003CC000024013455F8043B9847A642F9D1094E54
:1003DC00094D00F03FF9761BB61006D0002401340D
:1003EC0055F8043B9847A642F9D170BD8406000825
:1003FC00840600088C06000884060008F0B4860702
:10040C0046D0541E002A3CD0CAB2034602E014F176
:10041C00FF3436D303F8012B9D07F8D1032C29D9CF
:10042C00CDB245EA05250F2C45EA054533D9A4F193
:10043C001006360903F1200707EB061703F110022B
:10044C0042E9045542E902551032BA42F8D1721C05
:10045C0014F00C0F03EB021204F00F0613D0331F31
:10046C0023F003030433134442F8045B9342FBD19F
:10047C0006F003042CB1C9B21C4403F8011B9C42C6
:10048C00FBD1F0BC704734461346002CF3D1F8E78F
:10049C0014460346C2E71A462646E0E7024B13B160
:1004AC00024800F05DB870470000000079050008B4
:1004BC002DE9F04F4FF00009274B83B001901868DD
:1004CC000F4600F077F8254BD3F800A0DAF8486116
:1004DC008EB17468651E0ED44FF00108444406EBCF
:1004EC0084047FB1D4F80031BB420BD0013D6B1CAE
:1004FC00A4F10404F5D1184B186803B0BDE8F04F13
:10050C0000F060B873682268013BAB420CBF7560A9
:10051C00C4F80090002AE9D0D6F8881108FA05FC36
:10052C001CEA010FD6F804B008D1904772685A45FE
:10053C00CCD1DAF84831B342D8D0C7E7D6F88C31F1
:10054C00D4F880101CEA030F02D101989047EDE714
:10055C0008469047EAE700BF5004002078060008E0
:10056C00002301461A46184600F02EB838B50A4C3E
:10057C000A4D641BA4100AD004F18043013B05EB27
:10058C008305013C55F804399847002CF9D1BDE896
:10059C00384000F065B800BF900600088C060008D3
:1005AC00704700BF704700BF704700BF704700BF67
:1005BC00704700BF704700BF012070470120704793
:1005CC00704700BF704700BF2DE9F0411D4C054638
:1005DC00206890461F460E46FFF7ECFF1A4B1A6830
:1005EC00D2F848311BB35A6820681F2A24DC4DB955
:1005FC00511C0232596043F82260FFF7E3FF0020E0
:10060C00BDE8F081012403EB820CCCF88880D3F890
:10061C00881194402143022DC3F88811CCF808713D
:10062C00E6D1D3F88C110C43C3F88C41E0E702F50A
:10063C00A673C2F84831D6E7FFF7C4FF4FF0FF307E
:10064C00DEE700BF5004002078060008FEE700BF7C
:10065C0000000000F8B500BFF8BC08BC9E4670470F
:0C066C00F8B500BFF8BC08BC9E46704703
:040678002800002036
:08067C00D0FAFF7F010000002D
:08068400A9040008310100087F
:04068C000D01000854
:1006900000000000030406080C10182030000000C1
:1006A0000000000000000000010203040607080922
:1006B0000024F400280000200000000014030020A3
:1006C0007C030020E4030020000000000000000084
:1006D000000000000000000000000000000000001A
:1006E000000000000000000000000000000000000A
:1006F00000000000000000000000000000000000FA
:1007000000000000000000000000000000000000E9
:1007100000000000000000000000000000000000D9
:1007200000000000000000000000000000000000C9
:1007300000000000000000000000000000000000B9
:1007400000000000000000000000000000000000A9
:100750000000000000000000000000000000000099
:1007600001000000000000000E33CDAB34126DE636
:10077000ECDE05000B00000000000000000000009F
:100780000000000000000000000000000000000069
:100790000000000000000000000000000000000059
:1007A0000000000000000000000000000000000049
:1007B0000000000000000000000000000000000039
:040AE000700400207E
:040000050800035597
:00000001FF
